:1000000026C035C034C033C032C098C030C02FC005
:100010002EC02DC02CC02BC02AC029C028C0000073
:10002000000038000000000037000000000036002B
:10003000020202020202020202020102040810206D
:100040002004100801020000040000000000112438
:100050001FBECFE5D2E0DEBFCDBF20E0A0E6B0E01E
:1000600001C01D92AD36B207E1F7B2D04DC1C8CF85
:10007000823089F018F4813051F00895833019F0FE
:10008000843009F008958CB58F7D8CBD08958AB5B4
:100090008F778ABD08958AB58F7DFBCFCF93DF938D
:1000A000E4E4F0E08491EAE3F0E0D491E0E3F0E00E
:1000B000C491CC2399F08111DBDFEC2FF0E0EE0F3F
:1000C000FF1FE65DFF4FA591B491EC91ED2381E018
:1000D00090E009F480E0DF91CF91089580E090E016
:1000E000FACF1F93CF93DF93282F30E0F901EC5B19
:1000F000FF4F8491F901E65CFF4FD491F901E05D77
:10010000FF4FC491CC23A1F0162F8111B1DFEC2F4A
:10011000F0E0EE0FFF1FE25EFF4FA591B4918FB7A5
:10012000F894EC91111108C0D095DE23DC938FBFB9
:10013000DF91CF911F910895DE2BF8CF1F920F9280
:100140000FB60F9211242F933F938F939F93AF93EA
:10015000BF938091690090916A00A0916B00B0916B
:100160006C003091680023E0230F2D3758F501967D
:10017000A11DB11D209368008093690090936A00CF
:10018000A0936B00B0936C00809164009091650027
:10019000A0916600B09167000196A11DB11D8093EA
:1001A000640090936500A0936600B0936700BF91D0
:1001B000AF919F918F913F912F910F900FBE0F9014
:1001C0001F90189526E8230F0296A11DB11DD2CFCE
:1001D00078948AB582608ABD8AB581608ABD83B70A
:1001E000826083BF83B7816083BF89B7826089BF24
:1001F00080B7826080BF80B7816080BF329A319AB9
:10020000309A379A8CB580648CBDEAE3F0E0249193
:10021000E0E3F0E084918823C1F090E0880F991F1B
:10022000FC01EC5DFF4FC591D491FC01E25EFF4FF4
:10023000A591B4919FB7F8943881822F809583233C
:100240008883EC91E22BEC939FBF61E080E049DF73
:10025000ECE3F0E02491E2E3F0E08491882399F06C
:1002600090E0880F991FFC01EC5DFF4FA591B491C0
:10027000FC01E25EFF4F859194918FB7F894EC9169
:10028000E22BEC938FBF61E082E02BDF10926200E3
:100290001092610081E08093600000E010E0FF2494
:1002A000F394C0916300D0E0F9DEC817D907A9F034
:1002B000F5DE21E0009709F420E020936300892B0C
:1002C00061F0809161009091620001968233910506
:1002D00048F490936200809361000115110509F3C1
:1002E0008FDEDFCF1092620010926100809160007B
:1002F000882339F0109260006091600082E0F1DEA6
:0C030000ECCFF0926000F8CFF894FFCF33
:00000001FF
